:020000040000FA
:1000000002109075A60475E240222202156F43B2D9
:1000100083E5B920E529E4F5B943B980FFFE0FBFB8
:1000200000010EBE01F8BFF4F543B940E4FEFF0F36
:10003000BF00010EBE01F8BFF4F5E5B930E5FB5392
:10004000A98F22020A19BB010689828A83E0225005
:1000500002E722BBFE02E32289828A83E49322BB69
:10006000010CE58229F582E5833AF583E02250060A
:10007000E92582F8E622BBFE06E92582F8E222E5C0
:100080008229F582E5833AF583E49322BB01068950
:10009000828A83F0225002F722BBFE01F322BB01C9
:1000A0000A89828A83E0F5F0A3E022500687F009EE
:1000B000E71922BBFE07E3F5F009E3192289828ADA
:1000C00083E493F5F074019322BB0110E58229F5D6
:1000D00082E5833AF583E0F5F0A3E0225009E925B3
:1000E00082F886F008E622BBFE0AE92582F8E2F5EE
:1000F000F008E222E5832AF583E993F5F0A3E9937A
:1001000022BB010789828A83020241500B09C5F094
:1001100027F7C5F01937F722BBFE0D09F8E325F0E4
:10012000F3C5F019E338F322F889828A83740193C6
:1001300025F0C5F0F8E4933822BB010A89828A834E
:10014000F0E5F0A3F0225006F709A7F01922BBFE54
:1001500006F3E5F009F31922E0FCA3E0FDA3E0FEBD
:10016000A3E0FF22ECF0A3EDF0A3EEF0A3EFF0226A
:10017000A8828583F0D083D0821201871201871272
:100180000187120187E473E493A3C583C5F0C58397
:10019000C8C582C8F0A3C583C5F0C583C8C582C8D9
:1001A00022E6FB08E6FA08E6F922EBF608EAF6088A
:1001B000E9F622E0FBA3E0FAA3E0F922EBF0A3EAE0
:1001C000F0A3E9F022BB010789828A830201B350C0
:1001D00005E9F80201A1BBFE05E9F8020257898290
:1001E0008A83020260BB010DE58229F582E5833A2C
:1001F000F5830201B35007E92582F80201A1BBFE95
:1002000007E92582F8020257E58229F582E5833A5B
:10021000F583020260D083D082F8E49370127401F7
:1002200093700DA3A393F8740193F5828883E4730C
:100230007402936860EFA3A3A380DF8A838982E4BA
:1002400073C5F0F8A3E028F0C5F0F8E582158270D8
:10025000021583E038F022E2FB08E2FA08E2F92214
:10026000E493FB740193FA740293F9228F107511D1
:10027000FD7849E6FFC41354036402600302033FA0
:1002800008E604700302032024FD600302033F78A4
:100290004BE6FE08E6FFEE600302033FEF24FE603C
:1002A0004424FE605324FC60622407600302033F81
:1002B000900042E030E00854FEF04402F0800790E5
:1002C0000042E054FDF07F011212F51219A89000CF
:1002D0003E12017000000008900042E0FF30E15C37
:1002E0004401F0805790003E120158EF4410FFEC9B
:1002F00090003E120164804490003E120158EF4489
:1003000020FFEC90003E12016480317BFF7A1B7964
:1003100066753E00753F02C206E4FF120C3A801C6F
:10032000784BB6371A08B60B167BFF7A1B796575C2
:100330003E00753F01C206E4FF120C3AE4F511E5F8
:10034000117019900042E030E00F90003E12015809
:10035000EC4D4E4F60031218CBAF11227849E66482
:1003600080703308E66406600302042008E6FC0897
:10037000E6FDEC64036003020420AF05EF64EE6069
:10038000030204207BFF7A1A796F901A6F93753EEF
:1003900000F53F0204167849E664C0703608E6644A
:1003A000017030784EE6640418467027F512751314
:1003B00028784FE6FE08E6FFD3E5139FE5129E403E
:1003C000048E128F137BFF7A1A798185123E851372
:1003D0003F80437849E664C1704608E66401704096
:1003E000784DE6FE08E6FF64054E6004EF4E70307F
:1003F000751200751392784FE6FE08E6FFD3E513F9
:100400009FE5129E40048E128F137BFF7A1A79A902
:1004100085123E85133FC206E4FF120C3AE4F51143
:10042000AF11229002671201BC90001112005F9080
:100430000043F0E4900274F0900274E0FF7C007BD3
:10044000FF2439F9EC341AFA120046FEEF7B01243E
:1004500000F9EC3400FAEE12008C900274E004F023
:10046000E0B412D4E4900274F0900274E0FF901AA9
:100470004B93FE74122FF582E43400F583EEF09076
:100480000274E004F0E0B420E09002671201B312BD
:10049000009EFAE5F0FFEAFE900008EEF0A3EFF010
:1004A0009002671201B39000021200C9FAE5F0FF52
:1004B000EAFE90000AEEF0A3EFF07BFF7A1A796B68
:1004C0009000321201BC9002671201B39000041236
:1004D00001E59000351201BC9002671201B3900053
:1004E000071201E59000381201BC9002671201B3B7
:1004F00090000A1201E590003B1201BC90026712C5
:1005000001B390000D12005FFFC394FA50059000F4
:100510001AEFF09002671201B390000F1200C9FAAF
:10052000E5F0FFEAFE90000CEEF0A3EFF09002671A
:100530001201B390000E12005F900019F07B017A57
:1005400000790090026A1201BC7A00791290026D63
:100550001201BC7A0079329002701201BC900273D1
:100560007404F0E4900057F090003E120170000017
:100570000000E4900042F07A02796A020ED97858BD
:10058000E61392007855E6FE08E6FFC39440EE9429
:100590000040047F4080008F108510117851E6FFE5
:1005A000547F6401705EEF30E721081201A1C20898
:1005B0007D02E4FF1212297854740226F618E436FC
:1005C000F6151015107851E6547FF6E4F512E51093
:1005D000C313FFE512C39F504378521201A1C20812
:1005E0007D01E4FF1212297854740126F618E436CE
:1005F000F67BFF7A1B7968C2087D01E4FF1212299D
:10060000051280CA78521201A1C208AD10E4FF128F
:1006100012297854E51026F618E436F67858E65490
:10062000FBF6C37856E69511FF18E69400FEF6082F
:10063000EFF64E701E7858E620E4187596117597FF
:100640000AE59620E7FB78577601E47851F678586A
:10065000F68018759611759702E59620E7FB785697
:10066000E6184670067858E654EFF6300014E511A7
:10067000FB7A007855E6F51708E6F518E4FDFF1259
:100680000683228F138D148A158B16E5136401706F
:1006900054E514705090005B1201B3E5158516F017
:1006A000120101C3900064E09516FF900063E0958D
:1006B00015FEF0A3EFF04E600302076CE51645153A
:1006C0006017E516543F7011FBFAF9F53EF53FD27D
:1006D000067F01120C3A02076C90003E120158EF9F
:1006E0004402020764E5136402600302076CE51428
:1006F000705390005E1201B3E5158516F0120101EA
:10070000C3900062E09516F0900061E09515F0C38B
:10071000E5169440E5159400500B90003E120158E8
:10072000EF4404803F900061E0FEA3E0FF4E703C88
:10073000EF543F7037FBFAF9F538F539D2047F02F0
:100740001211A68027E514B4F22290003E1201583F
:10075000EE4401FEEC90003E12016490003E120156
:1007600058EF4404FFEC90003E120164900042E018
:1007700030E00F90003E120158EC4D4E4F600312D6
:1007800018CBE4FEFF22E4FDFC7514FF7849E66413
:10079000806003020884784BE6FE08E6F510EEFF61
:1007A000E46003020862EF24FE6025146044240222
:1007B0006003020862E510600302086278671201B4
:1007C000A18B118A1289131200467C00FD02086277
:1007D000E5106003020862786A1201A18B118A1287
:1007E00089139000021200C9FAE5F0FFEAFCEFFD60
:1007F0008070786D1201A175F003E510A4F5828573
:10080000F0831201E58B118A128913E510700BFC3D
:100810007D047851E65480F68048784DE6FE08E67F
:10082000FF4E600AEF64097003EE64047034E51053
:10083000C3784696502CAB11AA12A913900001124E
:10084000005F7C00FD120046547FFF7851E6548023
:100850004FFFF674012513F513E43512F512EF443A
:1008600080F6ED4C601E784FE6FE08E6FFD3ED9F64
:10087000EC9E4004AC06AD07AB11AA12A9131217E7
:100880000BE4F514AF1422C2007F011219D712191C
:100890009B5015759694E59620E7FB5397BFE59618
:1008A00020E70302094F80F61219C0400302094FE6
:1008B000121A2A8F0F7865E66403600A08E644027C
:1008C000F67510F98068C37864E6950F18E6940011
:1008D000500E7865760108E64402F67510F2804EF7
:1008E00078601201A1AD0F7F011214A37866E6545F
:1008F000FDF6AF0F7E00C37864E69FF618E69EF61D
:1009000018EF26F618EE36F67864E618466006E527
:100910000F6440600678657601D200E4F5107596A4
:1009200094E59620E7FB5397FEE59620E7FB786673
:10093000E630E01B30000354FEF6E50FFB7A00784A
:1009400063E6F51708E6F518AD107F02120683225C
:10095000750FFDE4FF1219D71219744005121967BB
:10096000501D759611E4F597E59620E7FB759611F5
:10097000759780E59620E7FB78577601E408F61234
:1009800019B44003020A0A7858E6FF30E302807780
:100990007857E6640170627851F61213557F491258
:1009A000026C8F0FE50FB4FD0F7849E6FFC41354B6
:1009B0000370051213AE8F0FE4FF1219D7E50F7005
:1009C000337850E61846700D759611759748E59680
:1009D00030E73780F9759611759740E59620E7FB6B
:1009E0007849E620E7247857E66403601D08E6446A
:1009F00008F680161218E080117857E6B403051245
:100A00000F6E80067858E64402F67857E6B402087E
:100A1000121981400312057E22C0E0C0F0C083C0DD
:100A200082C0D075D000C000C001C002C003C004A5
:100A3000C005C006C0071219E28F0B1219ED8F0C0A
:100A40001219F88F0D121A038F0EE50B30E3287878
:100A500058E6FF30E10618E66403600AEF30E20969
:100A60007857E6B40203430C017866E630E10818D3
:100A7000E6B40303430D02E50B30E20C1215A9E5C1
:100A8000C9A2E64003430B01E50B30E103121A2330
:100A9000E50B30E00312194CE50C30E103120E397E
:100AA000E50D30E103120887E50C30E00312095030
:100AB000AF0E1219D7D007D006D005D004D003D07E
:100AC00002D001D000D0D0D082D083D0F0D0E0329C
:100AD0007510FF784BE6FC08E6FDEC6003020B8422
:100AE0007849E6541F6003020B847850E61846608C
:100AF00003020B8418E618466003020B847847E66D
:100B00006404703EED4C6014786A1201A1900005F7
:100B100012005F784C66700218E67068784CE678D0
:100B200045F6786A1201A190000512005F784C66C4
:100B3000700218E6704BD20012173B7F061216DBCC
:100B4000803F7847E66406703B784BE6FE08E6FF98
:100B50004E6012786A1201A190000512005FB5077D
:100B600023E4B5061F784CE67845F6784CE618463F
:100B7000700A7F041216DB1217D38005C200121709
:100B80003BE4F510AF10227510FF7850E6640218B0
:100B9000466003020C37784CE618466003020C37B7
:100BA0007849E6FF20E703020C377847E6C3940450
:100BB0005003020C37E4F51DF51EEF541F146018A6
:100BC00014602324027061784EE61846705A121A97
:100BD000195052431D01804DC3784EE6940118E62A
:100BE00094005044803F784DE6FE08E6FFAC065482
:100BF0007F4C70087847E6B4040280297847E6B451
:100C00000626EF247F60122480701D7865E6B40606
:100C100006751D01751E00800C785EE6B40606752B
:100C20001D01751E00E4F510E510700BFB7A0079CC
:100C30001D7D02FC12170BAF10228F3A8B3B8A3CB2
:100C4000893DE53A600B1460088000121A377FFC7A
:100C500022E53A600A7847E6640660037FF722E5FA
:100C60003A75F007A42452F9AF01EF2405F8E6FE27
:100C700064016009EE7FFEB405027FFB22E5E6A277
:100C8000E1920753E6FDAB3BAA3CA93DA807120140
:100C9000AAEF2403F8A63E08A63FEF2405F8760243
:100CA000A206E4335401FEEF2406F8E654FE4EF6A5
:100CB000E53A14600B0470277858E64404F6801F68
:100CC000D3E53F9440E53E940040047D408004AF6E
:100CD0003FAD0778591201A1D2087F0112122930C5
:100CE000070343E6027F00221218348F1C8E1B8DEF
:100CF0001A8C19E51C5480FFE4FEFDFCEF6005C270
:100D0000A2121A34E51C5410FFE4FEFDEF601890A7
:100D1000027AE4F0A37400F0A37470F07B017A000F
:100D200079677C02121646E51C5404FFE4FEEF606E
:100D30003C7870E6FC08E6FD4C601890027AE4F01E
:100D4000A37400F0A37472F07B017A007967121625
:100D500078801A90027AE4F0A37400F0A37470F023
:100D60007B017A0079677D007C02121646E51C54EF
:100D700002FFE4FEFDEF601890027AE4F0A3740035
:100D8000F0A37470F07B017A0079677C021216463A
:100D9000227510FF7850E618466003020E36784937
:100DA000E6541F24FE6003020E36784CE6184660B7
:100DB00003020E36784DE6FE08E6547FFF4E700DB6
:100DC0007847E6C394044005E4F5108069C3EF94C6
:100DD00003EE940050607847E664067059F5107889
:100DE0004EE6547FFF1219D7784EE630E70B759622
:100DF00011759740E59620E7FB784EE620E71875D9
:100E00009694E59620E7FB5397DFE59620E7FB43B2
:100E10009780E59620E7FB784EE6247F600F2480DC
:100E200070147865E66403600D76018009785EE6EB
:100E3000640260027601AF10227F011219D71219E5
:100E40008E5010759611E4F597E59620E703020E93
:100E5000D880F6785EE66402707E785CE6FE08E68E
:100E6000FFD39440EE940040047F4080008F0F7EBB
:100E700000C3785DE69FF618E69EF618EF26F61892
:100E8000EE36F6785FE6139200785CE6FE08E6FF41
:100E9000D39400EE9400401FD3EF9440EE940040B2
:100EA000047D408004785DE6FD78591201A1D208E6
:100EB0007F011212298009785FE654FEF618760148
:100EC000300015E50FFB7A00785CE6F51708E6F5CB
:100ED00018E4FD7F01120683228B088A09890A53D0
:100EE000E6FD12000AE4FF74452FF8E4F60FBF2B6D
:100EF000F6AB08AA09A90A1201C578671201AAABC4
:100F000008AA09A90A9000031201E5786A1201AA49
:100F1000AB08AA09A90A9000061201E5786D120132
:100F2000AAAB08AA09A90A90000912005F7846F640
:100F300053A98F43D720759601759708E59620E74A
:100F4000FB75960B75970FE59620E7FB1219CCE51C
:100F5000C9A2E67847500476038002760143E60290
:100F6000759601759701E59620E7FB7F002278587A
:100F7000E6139200121A0E8F10C37856E69F18E6F9
:100F80009400500E7857760108E64402F67511F287
:100F9000805578521201A1AD10E4FF1214A3AF10D6
:100FA0007E007854EF26F618EE36F6C37856E69FA4
:100FB000FF18E69EFEF608EFF6E4F511EF4E701C02
:100FC000E51064406016759611759748E59620E720
:100FD000FB7857760108E654FEF6800B759611757E
:100FE0009740E59620E7FB300015E510FB7A007886
:100FF00055E6F51708E6F518AD11E4FF1206832251
:101000007510FF7850E61846600302108D7849E6A7
:10101000541F24FE7077784DE6FE08E6547FFF4E9D
:10102000700D7847E6C394044005E4F510805EC374
:10103000EF9403EE94005055784CE61846704E78C5
:1010400047E664067047F510784EE6547FFF1219A4
:10105000D7784EE630E70B759611759710E5962018
:10106000E7FB784EE620E710759694E59620E7FBBF
:10107000439720E59620E7FB784EE6247F600A241C
:1010800080700A786576068004785E7606AF102256
:10109000121A30787FE4F6D8FD7581730210DA02F7
:1010A0001764E493A3F8E493A34003F68001F208E5
:1010B000DFF48029E493A3F85407240CC8C333C495
:1010C000540F4420C8834004F456800146F6DFE400
:1010D000800B01020408102040809018B6E47E01C5
:1010E0009360BCA3FF543F30E509541FFEE493A373
:1010F00060010ECF54C025E060A840B8E493A3FA85
:10110000E493A3F8E493A3C8C582C8CAC583CAF010
:10111000A3C8C582C8CAC583CADFE9DEE780BEAE00
:1011200007E4FB1219D7300213A80674107E0008DA
:101130008005C333CE33CED8F9FF8013AF067420B9
:101140007E00A807088005C333CE33CED8F9FFD37D
:10115000ED9FEC9E50034303803003034303403074
:101160000120430320300203430304759611759751
:1011700040E59620E7FB7596128B97E59630E725BC
:1011800080F9759614759780E59620E7FB7596159E
:101190008B97E59620E7FB20020B759612E4F597F6
:1011A000E59620E7FB228F348B358A368937E53484
:1011B000600C24FE60088000121A377FFC22E534A0
:1011C000600A7847E6640660037FF722E53475F02D
:1011D00007A42452F9AF01EF2405F8E6FE6401608C
:1011E00009EE7FFEB405027FFB22E5E6A2E192054F
:1011F00053E6FDAB35AA36A937A8071201AAEF249A
:1012000003F8A63808A639EF2405F87603A204E40B
:10121000335401FEEF2406F8E654FE4EF654F7F67A
:1012200030050343E6027F00228F408D418B428AC6
:10123000438944E59620E7FBE5404420F596E542E6
:101240001460132403601A146020147026AD44AF98
:10125000411218F5801DAC43AD44AF411218A08077
:1012600012AD44AF411219098009AC43AD44AF41FE
:1012700012188930081CE540D394004015AF401285
:1012800019D7759691E59620E7FB439701E59620DF
:10129000E7FB227510FF784BE6FE08E6FFC394805B
:1012A000EE9400504D7850E6184670467849E65462
:1012B0001F703F784EE6184670387847E6B4030B47
:1012C000EF4E60197F041216DB80127847E6B404F3
:1012D0000F784CE6184670057F031216DBE4F51014
:1012E000E510700EF596784CE64480F597E596206B
:1012F000E7FBAF10228F14E4F516E5146005C394E4
:10130000034008121A377516FC8041E5E6A2E19207
:101310000153E6FDE51475F007A42452F98915E59B
:10132000152405F8E664016023E51424FE600A0430
:10133000700C7F011215DE80057F01121612E51573
:101340002405F87601E5152406F8E4F63001034398
:10135000E602AF1622751049A9107A007B007D08BD
:10136000E4FF1214A3E5102402F8E6FC08E6FAEC08
:10137000FFEAFEE5102402F8A60608A607E51024F9
:1013800004F8E6FC08E6FAECFFEAFEE5102404F8AF
:10139000A60608A607E5102406F8E6FC08E6FAEC1F
:1013A000FFEAFEE5102406F8A60608A60722E4FFD9
:1013B000784AE612021513D50013DA0113DF03137E
:1013C000E40513E90613EE0813F30913F80A13FDF5
:1013D0000B00001402120B87802A120D9180251237
:1013E00010008020121293801B12078680161214A0
:1013F000EA8011120AD0800C12153180071216AA49
:1014000080027FFF228F138D14E514B40514900021
:101410003E120158EF4480FFEC90003E120164122E
:1014200019A8E514B4061190003E120158EF44408B
:10143000FFEC90003E120164E514C39406500312C1
:1014400019A8900042E030E00F90003E120158ECE5
:101450004D4E4F60031218CB2212195A4006E5C9AF
:10146000A2E6403E53D7BC53A98F43A910E5C97FDC
:101470000020E7027F01BF010DD20143C910E4FF44
:101480000FBF03FC8002C20143B22012195A40F878
:10149000E5C9A2E650F230010353C9EF12000E4332
:1014A000D740228F128D138B148A158916E513D31A
:1014B00094004035E59620E7FBE51244E0F596E51B
:1014C000141460112403601824FE701DAD16AB12B5
:1014D000AF13021851AC15AD16AB12AF130217F4CF
:1014E000AD16AB12AF13121815227FFF784EE61817
:1014F00046703D18E6184670377850E66401184685
:10150000702E7849E6FE30E727541F70237847E6AF
:10151000B404087BFF7A1B7968800C7847E6B40630
:101520000F7B007A0079457D017C0012170BE4FFE8
:1015300022784DE6FE08E67DFFC39401EE9400504C
:101540002B7850E6640118467022784CE6184670F5
:101550001B7849E6B481157847E6B4060F7BFF7A1D
:101560001B79687D017C0012170BE4FDAF0522C0DA
:10157000E0C083C082C0D0758CFE758A0C90006676
:10158000E004F07006900065E004F0C3900066E0AF
:1015900094F4900065E094014006B2A2E4F0A3F058
:1015A000D0D0D082D083D0E03278577601785E7682
:1015B000067865760675960F75978FE59620E7FB9A
:1015C000759601759701E59620E7FB75960B759763
:1015D0000FE59620E7FB7F031216DB02178C12192A
:1015E000D7759611759708E59620E7FB759691E5F6
:1015F0009620E7FBE59720E3F3759611759708E5CC
:101600009620E7FB759691E59620E7FBE59720E3AA
:10161000F3221219D7759614759710E59620E7FBFB
:10162000759694E59620E7FBE59720E4F37596140C
:10163000759710E59620E7FB759694E59620E7FBF5
:10164000E59720E4F3229002751201BC90027A1211
:1016500001B390005E1201BCE4F5F0120139900074
:1016600061ECF0A3EDF09002751201B38C388D3966
:10167000D2047F021211A6229002751201BC9002C0
:101680007A1201B390005B1201BCE4F5F01201394B
:10169000900063ECF0A3EDF09002751201B38C3E64
:1016A0008D3FD2067F01120C3A227FFF784EE6FE74
:1016B000784CE6FDEEC3940150207847E6B4061A54
:1016C0007850E618467013ED70107849E6541FFE06
:1016D000BE0107C20012173BE4FF228F117847E6D4
:1016E000F512C394054009E511940550031217D370
:1016F000E511B405047848A6127847A611E51265ED
:10170000116007AD11AF12121405227857E664017B
:10171000702878521201AA7855A60408A605087602
:1017200002E408F6ED543F70117850E66D7003182E
:10173000E66C60067858E64410F622300008785EC1
:10174000760178657601D201D202C2037D407C0029
:101750007F0112111FC201D202C2037D407C007FB3
:101760000102111F75FF8012192F75EF0212186EFA
:1017700012000312191D7B007A0079221204237BC8
:10178000FF7A0C79E812193ED2AF80FE90003E122B
:101790000170000000011219A8900042E030E00F33
:1017A00090003E120158EC4D4E4F60031218CB22B0
:1017B000AD07ED4480F596E59620E7FBAF97EF7F08
:1017C00000FEED144480F596E59620E7FBAD97ED1D
:1017D000420722E5E6A2E1920053E6FD751301AF50
:1017E000131212F50513E513C3940340F2300003FE
:1017F00043E602228D828C831FEF600BE59620E783
:10180000FBE597F0A380F1E59620E7FBEB4420F59C
:1018100096E597F022A8051FEF600BE59620E7FB01
:10182000E597F20880F1E59620E7FBEB4420F5967A
:10183000E597F22290003E12015890027512016461
:1018400090003E12017000000000900275120158D5
:1018500022A8051FEF600AE59620E7FBA6970880FF
:10186000F2E59620E7FBEB4420F596A6972243B2DB
:1018700083E4F5B943B98012192F43B94012192FE7
:10188000E5B930E5FB75A902228D828C83AE071F76
:10189000EE600CE59620E7FBE493F597A380EE223B
:1018A0008D828C83AE071FEE600BE59620E7FBE090
:1018B000F597A380EF22122210C4EA61FF1B3BFFC1
:1018C0001B4BFF1B5D208001000000900057E07063
:1018D0000E04F0A31201B312023BE4900057F02271
:1018E000E4FF1219D778577605759611759760E55C
:1018F0009620E7FB22A805AE071FEE600BE59620B9
:10190000E7FBE6F5970880EF22A805AE071FEE601B
:101910000BE59620E7FBE2F5970880EF22758CFE39
:10192000758A0C758901758E02D2A975881022E41A
:10193000FFFE0FBF00010EBE01F8BFF4F5229000BC
:10194000581201BC900042E04401F0227847E6C3FF
:10195000940240057F051216DB22759681E59620DC
:10196000E7FBE597A2E122759691E59620E7FBE576
:1019700097A2E422759691E59620E7FBE597A2E20F
:1019800022759691E59620E7FBE597A2E1227596F0
:1019900091E59620E7FBE597A2E522759694E596FA
:1019A00020E7FBE597A2E622E4900061F0A3F0A314
:1019B000F0A3F022759691E59620E7FBE5971322B8
:1019C000759694E59620E7FBE59713227857760104
:1019D00043D78043D7402275960E8F97E59620E730
:1019E000FB22759686E59620E7FBAF9722759682D7
:1019F000E59620E7FBAF9722759684E59620E7FBF6
:101A0000AF972275968EE59620E7FBAF97227596E5
:101A100096E59620E7FBAF9722900019E0C330E6E9
:101A200001D3227848E6FF0216DB7F171217B02297
:101A300053D9BF2202145980FE1201000200000097
:101A400040C410000000010102030109022000014E
:101A5000010080320904000002FF00000007058138
:101A600002400000070501024000000403090412BF
:101A7000034D005300460054003100300030000197
:101A80000028000000000104000100000000000028
:101A900000000157494E555342000000000000006D
:101AA000000000000000000000920000000001059E
:101AB00000010088000000070000002A00440065C3
:101AC00000760069006300650049006E00740065DF
:101AD0000072006600610063006500470055004920
:101AE00000440073000000500000007B00330043FE
:101AF000003500450031003400360032002D00353D
:101B0000003600390035002D003400650031003802
:101B1000002D0038003700360042002D004600330B
:101B200000460033004400300038004100410046C8
:101B300000310038007D0000000000011A035369E5
:101B40006C69636F6E204C61627300011E03555314
:101B500042587072657373204563686F00010A0311
:0A1B60003030303100800205000033
:00000001FF
