:020000040000FA
:10000000020FE775A60475E240222202153A43B2B8
:1000100083E5B920E529E4F5B943B980FFFE0FBFB8
:1000200000010EBE01F8BFF4F543B940E4FEFF0F36
:10003000BF00010EBE01F8BFF4F5E5B930E5FB5392
:10004000A98F22020A19BB010689828A83E0225005
:1000500002E722BBFE02E32289828A83E49322BB69
:10006000010CE58229F582E5833AF583E02250060A
:10007000E92582F8E622BBFE06E92582F8E222E5C0
:100080008229F582E5833AF583E49322BB01068950
:10009000828A83F0225002F722BBFE01F322BB01C9
:1000A0000A89828A83E0F5F0A3E022500687F009EE
:1000B000E71922BBFE07E3F5F009E3192289828ADA
:1000C00083E493F5F074019322BB0110E58229F5D6
:1000D00082E5833AF583E0F5F0A3E0225009E925B3
:1000E00082F886F008E622BBFE0AE92582F8E2F5EE
:1000F000F008E222E5832AF583E993F5F0A3E9937A
:1001000022BB010789828A83020241500B09C5F094
:1001100027F7C5F01937F722BBFE0D09F8E325F0E4
:10012000F3C5F019E338F322F889828A83740193C6
:1001300025F0C5F0F8E4933822BB010A89828A834E
:10014000F0E5F0A3F0225006F709A7F01922BBFE54
:1001500006F3E5F009F31922E0FCA3E0FDA3E0FEBD
:10016000A3E0FF22ECF0A3EDF0A3EEF0A3EFF0226A
:10017000A8828583F0D083D0821201871201871272
:100180000187120187E473E493A3C583C5F0C58397
:10019000C8C582C8F0A3C583C5F0C583C8C582C8D9
:1001A00022E6FB08E6FA08E6F922EBF608EAF6088A
:1001B000E9F622E0FBA3E0FAA3E0F922EBF0A3EAE0
:1001C000F0A3E9F022BB010789828A830201B350C0
:1001D00005E9F80201A1BBFE05E9F8020257898290
:1001E0008A83020260BB010DE58229F582E5833A2C
:1001F000F5830201B35007E92582F80201A1BBFE95
:1002000007E92582F8020257E58229F582E5833A5B
:10021000F583020260D083D082F8E49370127401F7
:1002200093700DA3A393F8740193F5828883E4730C
:100230007402936860EFA3A3A380DF8A838982E4BA
:1002400073C5F0F8A3E028F0C5F0F8E582158270D8
:10025000021583E038F022E2FB08E2FA08E2F92214
:10026000E493FB740193FA740293F9228F2B752C9B
:10027000FD7845E6FFC41354036402600302033FA4
:1002800008E604700302032024FD600302033F78A4
:1002900047E6FE08E6FFEE600302033FEF24FE6040
:1002A0004424FE605324FC60622407600302033F81
:1002B000900042E030E00854FEF04402F0800790E5
:1002C0000042E054FDF07F011212C0121987900025
:1002D0003E12017000000008900042E0FF30E15C37
:1002E0004401F0805790003E120158EF4410FFEC9B
:1002F00090003E120164804490003E120158EF4489
:1003000020FFEC90003E12016480317BFF7A1B7964
:1003100050753800753902C207E4FF120C3A801C90
:100320007847B6371A08B60B167BFF7A1B794F75DC
:100330003800753901C207E4FF120C3AE4F52CE5E8
:100340002C7019900042E030E00F90003E120158EE
:10035000EC4D4E4F6003121896AF2C227845E664A0
:1003600080703308E66406600302042008E6FC0897
:10037000E6FDEC64036003020420AF05EF64EE6069
:10038000030204207BFF7A1A794E901A4E93753837
:1003900000F5390204167845E664C0703608E66454
:1003A000017030784AE6640418467027F52D752EE2
:1003B00028784BE6FE08E6FFD3E52E9FE52D9E400C
:1003C000048E2D8F2E7BFF7A1A7960852D38852E2D
:1003D0003980437845E664C1704608E664017040A0
:1003E0007849E6FE08E6FF64054E6004EF4E703083
:1003F000752D00752E92784BE6FE08E6FFD3E52EAC
:100400009FE52D9E40048E2D8F2E7BFF7A1A7988D2
:10041000852D38852E39C207E4FF120C3AE4F52CFD
:10042000AF2C229002671201BC90001112005F9065
:100430000043F0E4900274F0900274E0FF7C007BD3
:10044000FF2418F9EC341AFA120046FEEF7B01245F
:1004500000F9EC3400FAEE12008C900274E004F023
:10046000E0B412D4E4900274F0900274E0FF901AA9
:100470002A93FE74122FF582E43400F583EEF09097
:100480000274E004F0E0B420E09002671201B312BD
:10049000009EFAE5F0FFEAFE900008EEF0A3EFF010
:1004A0009002671201B39000021200C9FAE5F0FF52
:1004B000EAFE90000AEEF0A3EFF07BFF7A1A794A89
:1004C0009000321201BC9002671201B39000041236
:1004D00001E59000351201BC9002671201B3900053
:1004E000071201E59000381201BC9002671201B3B7
:1004F00090000A1201E590003B1201BC90026712C5
:1005000001B390000D12005FFFC394FA50059000F4
:100510001AEFF09002671201B390000F1200C9FAAF
:10052000E5F0FFEAFE90000CEEF0A3EFF09002671A
:100530001201B390000E12005F900019F07B017A57
:1005400000790090026A1201BC7A00791290026D63
:100550001201BC7A0079329002701201BC900273D1
:100560007404F0E4900057F090003E120170000017
:100570000000E4900042F07A02796A020E3078546A
:10058000E61392017851E6FE08E6FFC39440EE942C
:100590000040047F4080008F2B852B2C784DE6FF98
:1005A000547F6401705EEF30E721081201A1C20997
:1005B0007D02E4FF1211F47850740226F618E43636
:1005C000F6152B152B784DE6547FF6E4F52DE52B2B
:1005D000C313FFE52DC39F5043784E1201A1C209FA
:1005E0007D01E4FF1211F47850740126F618E43608
:1005F000F67BFF7A1B7952C2097D01E4FF1211F4E8
:10060000052D80CA784E1201A1C209AD2BE4FF125C
:1006100011F47850E52B26F618E436F67854E654B3
:10062000FBF6C37852E6952CFF18E69400FEF60818
:10063000EFF64E701E7854E620E418759611759703
:100640000AE59620E7FB78537601E4784DF6785476
:10065000F68018759611759702E59620E7FB78529B
:10066000E6184670067854E654EFF6300114E52C8F
:10067000FB7A007851E6F53208E6F533E4FDFF1227
:100680000683228F2E8D2F8A308B31E52E640170E8
:1006900054E52F705090005B1201B3E5308531F0C6
:1006A000120101C3900064E09531FF900063E09572
:1006B00030FEF0A3EFF04E600302076CE5314530E9
:1006C0006017E531543F7011FBFAF9F538F539D26E
:1006D000077F01120C3A02076C90003E120158EF9E
:1006E0004402020764E52E6402600302076CE52FF2
:1006F000705390005E1201B3E5308531F0120101B4
:10070000C3900062E09531F0900061E09530F0C355
:10071000E5319440E5309400500B90003E120158B2
:10072000EF4404803F900061E0FEA3E0FF4E703C88
:10073000EF543F7037FBFAF9F51EF51FD2057F0223
:100740001210FD8027E52FB4F22290003E120158CE
:10075000EE4401FEEC90003E12016490003E120156
:1007600058EF4404FFEC90003E120164900042E018
:1007700030E00F90003E120158EC4D4E4F600312D6
:100780001896E4FEFF22E4FDFC752FFF7845E66431
:100790008060030208847847E6FE08E6F52BEEFF4A
:1007A000E46003020862EF24FE6025146044240222
:1007B0006003020862E52B6003020862786312019D
:1007C000A18B2C8A2D892E1200467C00FD02086226
:1007D000E52B600302086278661201A18B2C8A2D3A
:1007E000892E9000021200C9FAE5F0FFEAFCEFFD45
:1007F000807078691201A175F003E52BA4F582855C
:10080000F0831201E58B2C8A2D892EE52B700BFCD1
:100810007D04784DE65480F680487849E6FE08E687
:10082000FF4E600AEF64097003EE64047034E52B38
:10083000C3784296502CAB2CAA2DA92E9000011201
:10084000005F7C00FD120046547FFF784DE6548027
:100850004FFFF67401252EF52EE4352DF52DEF44CE
:1008600080F6ED4C601E784BE6FE08E6FFD3ED9F68
:10087000EC9E4004AC06AD07AB2CAA2DA92E121697
:10088000D6E4F52FAF2F22C2017F011219B612193B
:100890007A5015759694E59620E7FB5397BFE59639
:1008A00020E70302094F80F612199F400302094F07
:1008B000121A098F2A7861E66403600A08E6440286
:1008C000F6752BF98068C37860E6952A18E69400DF
:1008D000500E7861760108E64402F6752BF2804EE0
:1008E000785C1201A1AD2A7F0112146E7862E65481
:1008F000FDF6AF2A7E00C37860E69FF618E69EF606
:1009000018EF26F618EE36F67860E618466006E52B
:100910002A6440600678617601D201E4F52B759671
:1009200094E59620E7FB5397FEE59620E7FB786277
:10093000E630E01B30010354FEF6E52AFB7A00782E
:100940005FE6F53208E6F533AD2B7F02120683220F
:10095000752AFDE4FF1219B6121953400512194603
:10096000501D759611E4F597E59620E7FB759611F5
:10097000759780E59620E7FB78537601E408F61238
:1009800019934003020A0A7854E6FF30E3028077A5
:100990007853E664017062784DF61213207F451299
:1009A000026C8F2AE52AB4FD0F7845E6FFC4135484
:1009B0000370051213798F2AE4FF1219B6E52A7025
:1009C00033784CE61846700D759611759748E59684
:1009D00030E73780F9759611759740E59620E7FB6B
:1009E0007845E620E7247853E66403601D08E64472
:1009F00008F680161218AB80117853E6B40305127E
:100A00000EC580067854E64402F67853E6B4020830
:100A1000121960400312057E22C0E0C0F0C083C0FE
:100A200082C0D075D000C000C001C002C003C004A5
:100A3000C005C006C0071219C18F261219CC8F2716
:100A40001219D78F281219E28F29E52630E328786A
:100A500054E6FF30E10618E66403600AEF30E2096D
:100A60007853E6B402034327017862E630E10818C0
:100A7000E6B40303432802E52630E20C121574E5C0
:100A8000C9A2E64003432601E52630E103121A021B
:100A9000E52630E00312192BE52730E103120D9013
:100AA000E52830E103120887E52730E003120950FA
:100AB000AF291219B6D007D006D005D004D003D084
:100AC00002D001D000D0D0D082D083D0F0D0E0329C
:100AD000752BFF7847E6FC08E6FDEC6003020B840B
:100AE0007845E6541F6003020B84784CE618466094
:100AF00003020B8418E618466003020B847843E671
:100B00006404703EED4C601478661201A1900005FB
:100B100012005F784866700218E670687848E678D8
:100B200041F678661201A190000512005F784866D0
:100B3000700218E6704BD2011217067F061216A635
:100B4000803F7843E66406703B7847E6FE08E6FFA0
:100B50004E601278661201A190000512005FB50781
:100B600023E4B5061F7848E67841F67848E618464B
:100B7000700A7F041216A612179E8005C201121772
:100B800006E4F52BAF2B22752BFF784CE664021898
:100B9000466003020C377848E618466003020C37BB
:100BA0007845E6FF20E703020C377843E6C3940458
:100BB0005003020C37E4F53FF540EF541F14601862
:100BC00014602324027061784AE61846705A12199C
:100BD000F85052433F01804DC3784AE6940118E62D
:100BE00094005044803F7849E6FE08E6FFAC065486
:100BF0007F4C70087843E6B4040280297843E6B459
:100C00000626EF247F60122480701D7861E6B4060A
:100C100006753F01754000800C785AE6B4060675EB
:100C20003F01754000E4F52BE52B700BFB7A007952
:100C30003F7D02FC1216D6AF2B228F348B358A36BD
:100C40008937E534600B1460088000121A167FFCA7
:100C500022E534600A7843E6640660037FF722E504
:100C60003475F007A4244EF9AF01EF2405F8E6FE31
:100C700064016009EE7FFEB405027FFB22E5E6A277
:100C8000E1920853E6FDAB35AA36A937A807120151
:100C9000AAEF2403F8A63808A639EF2405F876024F
:100CA000A207E4335401FEEF2406F8E654FE4EF6A4
:100CB000E53414600B0470277854E64404F6801F72
:100CC000D3E5399440E538940040047D408004AF7A
:100CD00039AD0778551201A1D2097F011211F43004
:100CE000080343E6027F0022752BFF784CE6184686
:100CF0006003020D8D7845E6541F24FE6003020D4B
:100D00008D7848E618466003020D8D7849E6FE08A6
:100D1000E6547FFF4E700D7843E6C394044005E42B
:100D2000F52B8069C3EF9403EE940050607843E69E
:100D300064067059F52B784AE6547FFF1219B6788D
:100D40004AE630E70B759611759740E59620E7FB6C
:100D5000784AE620E718759694E59620E7FB5397C6
:100D6000DFE59620E7FB439780E59620E7FB784A8E
:100D7000E6247F600F248070147861E66403600DC0
:100D800076018009785AE6640260027601AF2B2270
:100D90007F011219B612196D5010759611E4F5976E
:100DA000E59620E703020E2F80F6785AE66402707B
:100DB0007E7858E6FE08E6FFD39440EE94004004A7
:100DC0007F4080008F2A7E00C37859E69FF618E6A0
:100DD0009EF618EF26F618EE36F6785BE6139201CB
:100DE0007858E6FE08E6FFD39400EE9400401FD347
:100DF000EF9440EE940040047D4080047859E6FD75
:100E000078551201A1D2097F011211F48009785B93
:100E1000E654FEF6187601300115E52AFB7A0078D3
:100E200058E6F53208E6F533E4FD7F011206832229
:100E30008B228A23892453E6FD12000AE4FF7441C1
:100E40002FF8E4F60FBF2BF6AB22AA23A924120138
:100E5000C578631201AAAB22AA23A9249000031229
:100E600001E578661201AAAB22AA23A92490000604
:100E70001201E578691201AAAB22AA23A9249000E5
:100E80000912005F7842F653A98F43D72075960167
:100E9000759708E59620E7FB75960B75970FE59615
:100EA00020E7FB1219ABE5C9A2E6784350047603AC
:100EB0008002760143E602759601759701E596205A
:100EC000E7FB7F00227854E61392011219ED8F2B75
:100ED000C37852E69F18E69400500E7853760108C6
:100EE000E64402F6752CF28055784E1201A1AD2B26
:100EF000E4FF12146EAF2B7E007850EF26F618EE4A
:100F000036F6C37852E69FFF18E69EFEF608EFF627
:100F1000E4F52CEF4E701CE52B64406016759611BD
:100F2000759748E59620E7FB7853760108E654FE6E
:100F3000F6800B759611759740E59620E7FB30011A
:100F400015E52BFB7A007851E6F53208E6F533AD6E
:100F50002CE4FF12068322752BFF784CE6184660BE
:100F600003020FE47845E6541F24FE70777849E6C3
:100F7000FE08E6547FFF4E700D7843E6C3940440AC
:100F800005E4F52B805EC3EF9403EE940050557892
:100F900048E61846704E7843E664067047F52B78AD
:100FA0004AE6547FFF1219B6784AE630E70B759689
:100FB00011759710E59620E7FB784AE620E7107553
:100FC0009694E59620E7FB439720E59620E7FB788B
:100FD0004AE6247F600A2480700A786176068004DD
:100FE000785A7606AF2B22121A0F787FE4F6D8FDD6
:100FF00075816F02103102172FE493A3F8E493A3D5
:101000004003F68001F208DFF48029E493A3F8544A
:1010100007240CC8C333C4540F4420C8834004F4CD
:1010200056800146F6DFE4800B01020408102040E0
:1010300080901881E47E019360BCA3FF543F30E5AB
:1010400009541FFEE493A360010ECF54C025E06055
:10105000A840B8E493A3FAE493A3F8E493A3C8C523
:1010600082C8CAC583CAF0A3C8C582C8CAC583CA14
:10107000DFE9DEE780BEAE07E4FB1219B6300313EA
:10108000A80674107E00088005C333CE33CED8F98D
:10109000FF8013AF0674207E00A807088005C333C5
:1010A000CE33CED8F9FFD3ED9FEC9E50034303809F
:1010B0003004034303403002204303203003034342
:1010C0000304759611759740E59620E7FB75961217
:1010D0008B97E59630E72580F9759614759780E52E
:1010E0009620E7FB7596158B97E59620E7FB200386
:1010F0000B759612E4F597E59620E7FB228F1A8B85
:101100001B8A1C891DE51A600C24FE6008800012F1
:101110001A167FFC22E51A600A7843E6640660032B
:101120007FF722E51A75F007A4244EF9AF01EF24EA
:1011300005F8E6FE64016009EE7FFEB405027FFB60
:1011400022E5E6A2E1920653E6FDAB1BAA1CA91D0F
:10115000A8071201AAEF2403F8A61E08A61FEF2471
:1011600005F87603A205E4335401FEEF2406F8E601
:1011700054FE4EF654F7F630060343E6027F002293
:101180001217FF8F258E248D238C22E5255480FF96
:10119000E4FEFDFCEF6005C2A2121A13E52554100F
:1011A000FFE4FEFDEF60081218C07C02121611E584
:1011B000255404FFE4FEEF6027786CE6FC08E6FDAA
:1011C0004C601390026CE4F0A37400F0746E12187B
:1011D000CB121643800A1218C07D007C0212161131
:1011E000E5255402FFE4FEFDEF60081218C07C0202
:1011F000121611228F3A8D3B8B3C8A3D893EE59633
:1012000020E7FBE53A4420F596E53C1460132403FF
:10121000601A146020147026AD3EAF3B1218D480C3
:101220001DAC3DAD3EAF3B12186B8012AD3EAF3BE7
:101230001218E88009AC3DAD3EAF3B12185430099E
:101240001CE53AD394004015AF3A1219B675969141
:10125000E59620E7FB439701E59620E7FB22752BF7
:10126000FF7847E6FE08E6FFC39480EE9400504DF9
:10127000784CE6184670467845E6541F703F784A29
:10128000E6184670387843E6B4030BEF4E60197FDA
:10129000041216A680127843E6B4040F7848E618C4
:1012A0004670057F031216A6E4F52BE52B700EF5AC
:1012B000967848E64480F597E59620E7FBAF2B2229
:1012C0008F2FE4F531E52F6005C394034008121A0F
:1012D000167531FC8041E5E6A2E1920253E6FDE598
:1012E0002F75F007A4244EF98930E5302405F8E67F
:1012F00064016023E52F24FE600A04700C7F011254
:1013000015A980057F011215DDE5302405F8760169
:10131000E5302406F8E4F630020343E602AF31225A
:10132000752B45A92B7A007B007D08E4FF12146E13
:10133000E52B2402F8E6FC08E6FAECFFEAFEE52BD2
:101340002402F8A60608A607E52B2404F8E6FC0804
:10135000E6FAECFFEAFEE52B2404F8A60608A60749
:10136000E52B2406F8E6FC08E6FAECFFEAFEE52B9E
:101370002406F8A60608A60722E4FF7846E612022D
:101380001513A00013A50113AA0313AF0513B40688
:1013900013B90813BE0913C30A13C80B000013CDF9
:1013A000120B87802A120CE88025120F578020121A
:1013B000125E801B12078680161214B58011120A65
:1013C000D0800C1214FC800712167580027FFF2259
:1013D0008F2E8D2FE52FB4051490003E120158EF8B
:1013E0004480FFEC90003E120164121987E52FB48F
:1013F000061190003E120158EF4440FFEC90003E71
:10140000120164E52FC3940650031219879000421D
:10141000E030E00F90003E120158EC4D4E4F60035B
:10142000121896221219394006E5C9A2E6403E5329
:10143000D7BC53A98F43A910E5C97F0020E7027FDD
:1014400001BF010DD20043C910E4FF0FBF03FC80B0
:1014500002C20043B22012193940F8E5C9A2E65091
:10146000F230000353C9EF12000E43D740228F2DF4
:101470008D2E8B2F8A308931E52ED394004035E5AF
:101480009620E7FBE52D44E0F596E52F1460112446
:1014900003601824FE701DAD31AB2DAF2E02181C59
:1014A000AC30AD31AB2DAF2E0217BFAD31AB2DAF90
:1014B0002E1217E0227FFF784AE61846703D18E6A4
:1014C00018467037784CE664011846702E7845E669
:1014D000FE30E727541F70237843E6B404087BFFEF
:1014E0007A1B7952800C7843E6B4060F7B007A00B1
:1014F00079417D017C001216D6E4FF227849E6FE90
:1015000008E67DFFC39401EE9400502B784CE6640E
:1015100001184670227848E61846701B7845E6B4F4
:1015200081157843E6B4060F7BFF7A1B79527D0163
:101530007C001216D6E4FDAF0522C0E0C083C08255
:10154000C0D0758CFE758A0C900066E004F07006C1
:10155000900065E004F0C3900066E094F4900065AC
:10156000E094014006B2A2E4F0A3F0D0D0D082D043
:1015700083D0E03278537601785A76067861760621
:1015800075960F75978FE59620E7FB759601759711
:1015900001E59620E7FB75960B75970FE59620E71A
:1015A000FB7F031216A60217571219B6759611750E
:1015B0009708E59620E7FB759691E59620E7FBE511
:1015C0009720E3F3759611759708E59620E7FB756C
:1015D0009691E59620E7FBE59720E3F3221219B6F2
:1015E000759614759710E59620E7FB759694E59629
:1015F00020E7FBE59720E4F3759614759710E596C0
:1016000020E7FB759694E59620E7FBE59720E4F349
:10161000229002671201BC90026C1201B390005E2E
:101620001201BCE4F5F0120139900061ECF0A3ED79
:10163000F09002671201B38C1E8D1FD2057F02123B
:1016400010FD229002671201BC90026C1201B3904F
:10165000005B1201BCE4F5F0120139900063ECF07C
:10166000A3EDF09002671201B38C388D39D2077F59
:1016700001120C3A227FFF784AE6FE7848E6FDEE3A
:10168000C3940150207843E6B4061A784CE6184615
:101690007013ED70107845E6541FFEBE0107C201BD
:1016A000121706E4FF228F2C7843E6F52DC394052C
:1016B0004009E52C9405500312179EE52CB405044F
:1016C0007844A62D7843A62CE52D652C6007AD2C1B
:1016D000AF2D1213D0227853E664017028784E1291
:1016E00001AA7851A60408A605087602E408F6EDDA
:1016F000543F7011784CE66D700318E66C60067804
:1017000054E64410F622300108785A760178617662
:1017100001D202D203C2047D407C007F0112107608
:10172000C202D203C2047D407C007F0102107675A4
:10173000FF8012190E75EF021218391200031218E9
:10174000FC7B007A0079081204237BFF7A117980F0
:1017500012191DD2AF80FE90003E120170000000F1
:1017600001121987900042E030E00F90003E120114
:1017700058EC4D4E4F600312189622AD07ED448091
:10178000F596E59620E7FBAF97EF7F00FEED14445A
:1017900080F596E59620E7FBAD97ED420722E5E65A
:1017A000A2E1920153E6FD752E01AF2E1212C00583
:1017B0002EE52EC3940340F230010343E602228D4E
:1017C000828C831FEF600BE59620E7FBE597F0A383
:1017D00080F1E59620E7FBEB4420F596E597F022B3
:1017E000A8051FEF600BE59620E7FBE597F2088060
:1017F000F1E59620E7FBEB4420F596E597F2229081
:10180000003E12015890026712016490003E1201DE
:10181000700000000090026712015822A8051FEF17
:10182000600AE59620E7FBA6970880F2E59620E798
:10183000FBEB4420F596A6972243B283E4F5B94327
:10184000B98012190E43B94012190EE5B930E5FB03
:1018500075A902228D828C83AE071FEE600CE5967F
:1018600020E7FBE493F597A380EE228D828C83AE74
:10187000071FEE600BE59620E7FBE0F597A380EFEE
:1018800022120810C4EA61FF1B1AFF1B30FF1B471E
:10189000208001000000900057E0700E04F0A312B9
:1018A00001B312023BE4900057F022E4FF1219B694
:1018B00078537605759611759760E59620E7FB22BB
:1018C00090026CE4F0A37400F0746CA3F07B017AD6
:1018D00000796722A805AE071FEE600BE59620E7AA
:1018E000FBE6F5970880EF22A805AE071FEE600B18
:1018F000E59620E7FBE2F5970880EF22758CFE75F0
:101900008A0C758901758E02D2A975881022E4FFB0
:10191000FE0FBF00010EBE01F8BFF4F52290005883
:101920001201BC900042E04401F0227843E6C394E7
:101930000240057F051216A622759681E59620E7DE
:10194000FBE597A2E122759691E59620E7FBE597E6
:10195000A2E422759691E59620E7FBE597A2E222A4
:10196000759691E59620E7FBE597A2E122759691A1
:10197000E59620E7FBE597A2E522759694E596208B
:10198000E7FBE597A2E622E4900061F0A3F0A3F064
:10199000A3F022759691E59620E7FBE59713227553
:1019A0009694E59620E7FBE597132278537601435A
:1019B000D78043D7402275960E8F97E59620E7FB98
:1019C00022759686E59620E7FBAF9722759682E50D
:1019D0009620E7FBAF9722759684E59620E7FBAF4C
:1019E000972275968EE59620E7FBAF97227596961F
:1019F000E59620E7FBAF9722900019E0C330E6019F
:101A0000D3227844E6FF0216A67F1712177B2253D3
:101A1000D9BF2202142480FE1201000200000040FF
:101A2000C4100000000101020301090220000101AD
:101A30000080320904000002FF0000000705810257
:101A400040000007050102400000040309041203DE
:101A50004D005300460054003100300030000100BA
:101A60002800000000010400010000000000000048
:101A7000000157494E55534200000000000000008D
:101A800000000000000000009200000000010500BE
:101A9000010088000000070000002A0044006500E3
:101AA000760069006300650049006E0074006500FF
:101AB0007200660061006300650047005500490040
:101AC000440073000000500000007B00330043001E
:101AD0003500450031003400360032002D0035005D
:101AE0003600390035002D00340065003100380023
:101AF0002D0038003700360042002D00460033002C
:101B000046003300440030003800410041004600E8
:101B1000310038007D00000000000126034B6F6E8D
:101B200072616420537563686F646F6C736B6900D6
:101B300001280355534258707265737320566F6CB9
:101B4000746D6574657200010A03303030390080AD
:041B5000020500008A
:00000001FF
